{
  "contractName": "MarvelDC",
  "abi": [
    {
      "inputs": [],
      "stateMutability": "nonpayable",
      "type": "constructor"
    },
    {
      "anonymous": false,
      "inputs": [
        {
          "indexed": false,
          "internalType": "string",
          "name": "description",
          "type": "string"
        }
      ],
      "name": "ComputationSubmitted",
      "type": "event"
    },
    {
      "inputs": [],
      "name": "_randomness",
      "outputs": [
        {
          "internalType": "bytes32",
          "name": "",
          "type": "bytes32"
        }
      ],
      "stateMutability": "view",
      "type": "function"
    },
    {
      "inputs": [],
      "name": "refreshRandomness",
      "outputs": [
        {
          "internalType": "bytes32",
          "name": "random",
          "type": "bytes32"
        }
      ],
      "stateMutability": "nonpayable",
      "type": "function"
    },
    {
      "inputs": [],
      "name": "Computer_Register",
      "outputs": [
        {
          "internalType": "bool",
          "name": "",
          "type": "bool"
        }
      ],
      "stateMutability": "payable",
      "type": "function"
    },
    {
      "inputs": [
        {
          "internalType": "bytes32",
          "name": "_id",
          "type": "bytes32"
        },
        {
          "internalType": "string",
          "name": "description",
          "type": "string"
        },
        {
          "internalType": "uint256",
          "name": "_numToSelect",
          "type": "uint256"
        },
        {
          "internalType": "uint256",
          "name": "_numToReward",
          "type": "uint256"
        },
        {
          "internalType": "uint256",
          "name": "_rewardAmount",
          "type": "uint256"
        },
        {
          "internalType": "uint256",
          "name": "_targetFunctionID",
          "type": "uint256"
        },
        {
          "internalType": "uint256",
          "name": "_publicKeyN",
          "type": "uint256"
        }
      ],
      "name": "Request_Computation",
      "outputs": [
        {
          "internalType": "bool",
          "name": "",
          "type": "bool"
        }
      ],
      "stateMutability": "payable",
      "type": "function"
    },
    {
      "inputs": [
        {
          "internalType": "bytes32",
          "name": "_computationId",
          "type": "bytes32"
        },
        {
          "internalType": "uint256",
          "name": "num",
          "type": "uint256"
        }
      ],
      "name": "getSelectedComputerByPosition",
      "outputs": [
        {
          "internalType": "address",
          "name": "",
          "type": "address"
        }
      ],
      "stateMutability": "view",
      "type": "function"
    },
    {
      "inputs": [
        {
          "internalType": "address",
          "name": "_computer",
          "type": "address"
        }
      ],
      "name": "getReputation",
      "outputs": [
        {
          "internalType": "uint256",
          "name": "",
          "type": "uint256"
        }
      ],
      "stateMutability": "view",
      "type": "function"
    },
    {
      "inputs": [
        {
          "internalType": "bytes32",
          "name": "_computationId",
          "type": "bytes32"
        },
        {
          "internalType": "address",
          "name": "_comp",
          "type": "address"
        }
      ],
      "name": "getComputerResponsesByAddress",
      "outputs": [
        {
          "internalType": "uint256",
          "name": "",
          "type": "uint256"
        }
      ],
      "stateMutability": "view",
      "type": "function"
    },
    {
      "inputs": [
        {
          "internalType": "bytes32",
          "name": "_computationId",
          "type": "bytes32"
        },
        {
          "internalType": "uint256",
          "name": "_response",
          "type": "uint256"
        }
      ],
      "name": "Submit_Result",
      "outputs": [
        {
          "internalType": "bool",
          "name": "",
          "type": "bool"
        }
      ],
      "stateMutability": "nonpayable",
      "type": "function"
    },
    {
      "inputs": [
        {
          "internalType": "bytes32",
          "name": "_computationId",
          "type": "bytes32"
        },
        {
          "internalType": "address[]",
          "name": "_respondingComputers",
          "type": "address[]"
        },
        {
          "internalType": "uint256[]",
          "name": "_decryptedResults",
          "type": "uint256[]"
        }
      ],
      "name": "Reveal_Results",
      "outputs": [
        {
          "internalType": "bool",
          "name": "",
          "type": "bool"
        }
      ],
      "stateMutability": "nonpayable",
      "type": "function"
    },
    {
      "inputs": [],
      "name": "_getContractBalance",
      "outputs": [
        {
          "internalType": "uint256",
          "name": "",
          "type": "uint256"
        }
      ],
      "stateMutability": "view",
      "type": "function"
    },
    {
      "inputs": [],
      "name": "_getPlayerBalance",
      "outputs": [
        {
          "internalType": "uint256",
          "name": "",
          "type": "uint256"
        }
      ],
      "stateMutability": "view",
      "type": "function"
    }
  ],
  "bytecode": "0x6080604052600a60055534801561001557600080fd5b506001600681905550600160048190555060016007819055506128af8061003d6000396000f3fe60806040526004361061009c5760003560e01c80639c89a0e2116100645780639c89a0e21461017d578063aa6dec52146101ba578063aaadc68f146101f7578063c9f5a9fa14610227578063d26d927114610252578063ee460d5e1461028f5761009c565b806322f60d19146100a1578063598d2a4b146100de5780635995c11314610109578063894f27ff146101345780639b8303e01461015f575b600080fd5b3480156100ad57600080fd5b506100c860048036038101906100c3919061161b565b6102cc565b6040516100d59190611674565b60405180910390f35b3480156100ea57600080fd5b506100f361032a565b6040516101009190611674565b60405180910390f35b34801561011557600080fd5b5061011e610349565b60405161012b9190611674565b60405180910390f35b34801561014057600080fd5b50610149610351565b604051610156919061169e565b60405180910390f35b610167610357565b60405161017491906116d4565b60405180910390f35b34801561018957600080fd5b506101a4600480360381019061019f91906116ef565b6104dd565b6040516101b19190611674565b60405180910390f35b3480156101c657600080fd5b506101e160048036038101906101dc9190611748565b610526565b6040516101ee91906116d4565b60405180910390f35b610211600480360381019061020c91906118ce565b61075a565b60405161021e91906116d4565b60405180910390f35b34801561023357600080fd5b5061023c610963565b604051610249919061169e565b60405180910390f35b34801561025e57600080fd5b5061027960048036038101906102749190611748565b61099d565b604051610286919061199b565b60405180910390f35b34801561029b57600080fd5b506102b660048036038101906102b19190611b41565b6109fa565b6040516102c391906116d4565b60405180910390f35b60006001600084815260200190815260200160002060090160008373ffffffffffffffffffffffffffffffffffffffff1673ffffffffffffffffffffffffffffffffffffffff16815260200190815260200160002054905092915050565b60003373ffffffffffffffffffffffffffffffffffffffff1631905090565b600047905090565b60005481565b600060045434101561039e576040517f08c379a000000000000000000000000000000000000000000000000000000000815260040161039590611c4f565b60405180910390fd5b6000600260003373ffffffffffffffffffffffffffffffffffffffff1673ffffffffffffffffffffffffffffffffffffffff1681526020019081526020016000205414610420576040517f08c379a000000000000000000000000000000000000000000000000000000000815260040161041790611cbb565b60405180910390fd5b6127106005546104309190611d0a565b600260003373ffffffffffffffffffffffffffffffffffffffff1673ffffffffffffffffffffffffffffffffffffffff168152602001908152602001600020819055506003339080600181540180825580915050600190039060005260206000200160009091909190916101000a81548173ffffffffffffffffffffffffffffffffffffffff021916908373ffffffffffffffffffffffffffffffffffffffff1602179055506001905090565b6000600260008373ffffffffffffffffffffffffffffffffffffffff1673ffffffffffffffffffffffffffffffffffffffff168152602001908152602001600020549050919050565b600080600160008581526020019081526020016000206006015411610580576040517f08c379a000000000000000000000000000000000000000000000000000000000815260040161057790611dd6565b60405180910390fd5b61058983610fc7565b6105c8576040517f08c379a00000000000000000000000000000000000000000000000000000000081526004016105bf90611e42565b60405180910390fd5b60006001600085815260200190815260200160002060090160003373ffffffffffffffffffffffffffffffffffffffff1673ffffffffffffffffffffffffffffffffffffffff168152602001908152602001600020541461065e576040517f08c379a000000000000000000000000000000000000000000000000000000000815260040161065590611ed4565b60405180910390fd5b816001600085815260200190815260200160002060090160003373ffffffffffffffffffffffffffffffffffffffff1673ffffffffffffffffffffffffffffffffffffffff16815260200190815260200160002081905550600160008481526020019081526020016000206001015460016000858152602001908152602001600020600201546127106106f19190611d0a565b6106fb9190611f23565b600260004173ffffffffffffffffffffffffffffffffffffffff1673ffffffffffffffffffffffffffffffffffffffff16815260200190815260200160002060008282546107499190611f54565b925050819055506001905092915050565b60006003805490508611156107a4576040517f08c379a000000000000000000000000000000000000000000000000000000000815260040161079b90611ff6565b60405180910390fd5b83856107b09190611d0a565b60026107bc9190611d0a565b3410156107fe576040517f08c379a00000000000000000000000000000000000000000000000000000000081526004016107f590612088565b60405180910390fd5b8660405160200161080f9190612122565b604051602081830303815290604052805190602001208814610866576040517f08c379a000000000000000000000000000000000000000000000000000000000815260040161085d90612185565b60405180910390fd5b7fcd40ea1364197f8909dfcfd663fd734e22a6f4442cc841293e6f9293c8186ca88760405161089591906121de565b60405180910390a16000600160008a81526020019081526020016000209050338160000160006101000a81548173ffffffffffffffffffffffffffffffffffffffff021916908373ffffffffffffffffffffffffffffffffffffffff16021790555086816001018190555085816002018190555084816003018190555083816004018190555082816005018190555043816006018190555060018160070160006101000a81548160ff021916908315150217905550610953896110a1565b6001915050979650505050505050565b600061098f60005460405160200161097b9190612221565b60405160208183030381529060405261145e565b600081905550600054905090565b60006001600084815260200190815260200160002060080182815481106109c7576109c661223c565b5b9060005260206000200160009054906101000a900473ffffffffffffffffffffffffffffffffffffffff16905092915050565b60003373ffffffffffffffffffffffffffffffffffffffff166001600086815260200190815260200160002060000160009054906101000a900473ffffffffffffffffffffffffffffffffffffffff1673ffffffffffffffffffffffffffffffffffffffff1614610aa0576040517f08c379a0000000000000000000000000000000000000000000000000000000008152600401610a97906122b7565b60405180910390fd5b600115156001600086815260200190815260200160002060070160009054906101000a900460ff16151514610b0a576040517f08c379a0000000000000000000000000000000000000000000000000000000008152600401610b0190612349565b60405180910390fd5b6001600085815260200190815260200160002060010154835114610b63576040517f08c379a0000000000000000000000000000000000000000000000000000000008152600401610b5a906123db565b60405180910390fd5b6001600085815260200190815260200160002060010154825114610bbc576040517f08c379a0000000000000000000000000000000000000000000000000000000008152600401610bb39061246d565b60405180910390fd5b60005b8351811015610d02576000838281518110610bdd57610bdc61223c565b5b60200260200101519050600160008781526020019081526020016000206005015460016000888152602001908152602001600020600501548283610c219190611d0a565b610c2b919061248d565b82610c369190611d0a565b610c40919061248d565b600160008881526020019081526020016000206009016000878581518110610c6b57610c6a61223c565b5b602002602001015173ffffffffffffffffffffffffffffffffffffffff1673ffffffffffffffffffffffffffffffffffffffff1681526020019081526020016000205414610cee576040517f08c379a0000000000000000000000000000000000000000000000000000000008152600401610ce59061250a565b60405180910390fd5b508080610cfa9061252a565b915050610bbf565b506001806000868152602001908152602001600020600401541415610d6c57610d2c84848461146f565b610d6b576040517f08c379a0000000000000000000000000000000000000000000000000000000008152600401610d62906125bf565b60405180910390fd5b5b60005b6001600086815260200190815260200160002060020154811015610e9557838181518110610da057610d9f61223c565b5b602002602001015173ffffffffffffffffffffffffffffffffffffffff166108fc60016000888152602001908152602001600020600301549081150290604051600060405180830381858888f19350505050158015610e03573d6000803e3d6000fd5b506127106001610e139190611d0a565b60026000868481518110610e2a57610e2961223c565b5b602002602001015173ffffffffffffffffffffffffffffffffffffffff1673ffffffffffffffffffffffffffffffffffffffff1681526020019081526020016000206000828254610e7b9190611f54565b925050819055508080610e8d9061252a565b915050610d6f565b506001600085815260200190815260200160002060020154612710610eba9190611d0a565b600260004173ffffffffffffffffffffffffffffffffffffffff1673ffffffffffffffffffffffffffffffffffffffff1681526020019081526020016000206000828254610f089190611f54565b925050819055503373ffffffffffffffffffffffffffffffffffffffff166108fc60016000878152602001908152602001600020600201546001600088815260200190815260200160002060030154610f619190611d0a565b9081150290604051600060405180830381858888f19350505050158015610f8c573d6000803e3d6000fd5b5060006001600086815260200190815260200160002060070160006101000a81548160ff021916908315150217905550600190509392505050565b60008033905060005b6001600085815260200190815260200160002060080180549050811015611095578173ffffffffffffffffffffffffffffffffffffffff166001600086815260200190815260200160002060080182815481106110305761102f61223c565b5b9060005260206000200160009054906101000a900473ffffffffffffffffffffffffffffffffffffffff1673ffffffffffffffffffffffffffffffffffffffff1614156110825760019250505061109c565b808061108d9061252a565b915050610fd0565b5060009150505b919050565b60006103e890506000600380548060200260200160405190810160405280929190818152602001828054801561112c57602002820191906000526020600020905b8160009054906101000a900473ffffffffffffffffffffffffffffffffffffffff1673ffffffffffffffffffffffffffffffffffffffff16815260200190600101908083116110e2575b50505050509050600080600080600080600090505b600160008a815260200190815260200160002060010154811015611453576000955060005b6001826111739190611f54565b60038054905061118391906125df565b81101561120457600260008983815181106111a1576111a061223c565b5b602002602001015173ffffffffffffffffffffffffffffffffffffffff1673ffffffffffffffffffffffffffffffffffffffff16815260200190815260200160002054876111ef9190611f54565b965080806111fc9061252a565b915050611166565b5087866112119190611d0a565b945061121b610963565b508460005460001c61122d919061248d565b935060009250600091505b8383116112c45787600260008985815181106112575761125661223c565b5b602002602001015173ffffffffffffffffffffffffffffffffffffffff1673ffffffffffffffffffffffffffffffffffffffff168152602001908152602001600020546112a49190611d0a565b836112af9190611f54565b925081806112bc9061252a565b925050611238565b600160008a8152602001908152602001600020600801876001846112e891906125df565b815181106112f9576112f861223c565b5b60200260200101519080600181540180825580915050600190039060005260206000200160009091909190916101000a81548173ffffffffffffffffffffffffffffffffffffffff021916908373ffffffffffffffffffffffffffffffffffffffff16021790555060018161136e9190611f54565b60038054905061137e91906125df565b82101561144057600060018361139491906125df565b90505b6001826113a49190611f54565b88516113b091906125df565b81101561143e57876001826113c59190611f54565b815181106113d6576113d561223c565b5b60200260200101518882815181106113f1576113f061223c565b5b602002602001019073ffffffffffffffffffffffffffffffffffffffff16908173ffffffffffffffffffffffffffffffffffffffff168152505080806114369061252a565b915050611397565b505b808061144b9061252a565b915050611141565b505050505050505050565b600081805190602001209050919050565b6000806000905060005b83518110156114bd578381815181106114955761149461223c565b5b6020026020010151826114a89190611f54565b915080806114b59061252a565b915050611479565b506114c9818451611549565b90506000805b845181101561153a57600060028683815181106114ef576114ee61223c565b5b602002602001015185611502919061261d565b61150c919061280d565b905082811015611523576000945050505050611542565b8092505080806115329061252a565b9150506114cf565b506001925050505b9392505050565b6000611555838361155d565b905092915050565b6000818361156b9190611f23565b905092915050565b6000604051905090565b600080fd5b600080fd5b6000819050919050565b61159a81611587565b81146115a557600080fd5b50565b6000813590506115b781611591565b92915050565b600073ffffffffffffffffffffffffffffffffffffffff82169050919050565b60006115e8826115bd565b9050919050565b6115f8816115dd565b811461160357600080fd5b50565b600081359050611615816115ef565b92915050565b600080604083850312156116325761163161157d565b5b6000611640858286016115a8565b925050602061165185828601611606565b9150509250929050565b6000819050919050565b61166e8161165b565b82525050565b60006020820190506116896000830184611665565b92915050565b61169881611587565b82525050565b60006020820190506116b3600083018461168f565b92915050565b60008115159050919050565b6116ce816116b9565b82525050565b60006020820190506116e960008301846116c5565b92915050565b6000602082840312156117055761170461157d565b5b600061171384828501611606565b91505092915050565b6117258161165b565b811461173057600080fd5b50565b6000813590506117428161171c565b92915050565b6000806040838503121561175f5761175e61157d565b5b600061176d858286016115a8565b925050602061177e85828601611733565b9150509250929050565b600080fd5b600080fd5b6000601f19601f8301169050919050565b7f4e487b7100000000000000000000000000000000000000000000000000000000600052604160045260246000fd5b6117db82611792565b810181811067ffffffffffffffff821117156117fa576117f96117a3565b5b80604052505050565b600061180d611573565b905061181982826117d2565b919050565b600067ffffffffffffffff821115611839576118386117a3565b5b61184282611792565b9050602081019050919050565b82818337600083830152505050565b600061187161186c8461181e565b611803565b90508281526020810184848401111561188d5761188c61178d565b5b61189884828561184f565b509392505050565b600082601f8301126118b5576118b4611788565b5b81356118c584826020860161185e565b91505092915050565b600080600080600080600060e0888a0312156118ed576118ec61157d565b5b60006118fb8a828b016115a8565b975050602088013567ffffffffffffffff81111561191c5761191b611582565b5b6119288a828b016118a0565b96505060406119398a828b01611733565b955050606061194a8a828b01611733565b945050608061195b8a828b01611733565b93505060a061196c8a828b01611733565b92505060c061197d8a828b01611733565b91505092959891949750929550565b611995816115dd565b82525050565b60006020820190506119b0600083018461198c565b92915050565b600067ffffffffffffffff8211156119d1576119d06117a3565b5b602082029050602081019050919050565b600080fd5b60006119fa6119f5846119b6565b611803565b90508083825260208201905060208402830185811115611a1d57611a1c6119e2565b5b835b81811015611a465780611a328882611606565b845260208401935050602081019050611a1f565b5050509392505050565b600082601f830112611a6557611a64611788565b5b8135611a758482602086016119e7565b91505092915050565b600067ffffffffffffffff821115611a9957611a986117a3565b5b602082029050602081019050919050565b6000611abd611ab884611a7e565b611803565b90508083825260208201905060208402830185811115611ae057611adf6119e2565b5b835b81811015611b095780611af58882611733565b845260208401935050602081019050611ae2565b5050509392505050565b600082601f830112611b2857611b27611788565b5b8135611b38848260208601611aaa565b91505092915050565b600080600060608486031215611b5a57611b5961157d565b5b6000611b68868287016115a8565b935050602084013567ffffffffffffffff811115611b8957611b88611582565b5b611b9586828701611a50565b925050604084013567ffffffffffffffff811115611bb657611bb5611582565b5b611bc286828701611b13565b9150509250925092565b600082825260208201905092915050565b7f436f6d7075746572207265676973746572206d757374206465706f736974206560008201527f7363726f77200000000000000000000000000000000000000000000000000000602082015250565b6000611c39602683611bcc565b9150611c4482611bdd565b604082019050919050565b60006020820190508181036000830152611c6881611c2c565b9050919050565b7f526567697374726174696f6e20494420616c72656164792074616b656e000000600082015250565b6000611ca5601d83611bcc565b9150611cb082611c6f565b602082019050919050565b60006020820190508181036000830152611cd481611c98565b9050919050565b7f4e487b7100000000000000000000000000000000000000000000000000000000600052601160045260246000fd5b6000611d158261165b565b9150611d208361165b565b9250817fffffffffffffffffffffffffffffffffffffffffffffffffffffffffffffffff0483118215151615611d5957611d58611cdb565b5b828202905092915050565b7f5375626d697420526573756c743a20436f6d7075746174696f6e20646f65736e60008201527f2774206578697374000000000000000000000000000000000000000000000000602082015250565b6000611dc0602883611bcc565b9150611dcb82611d64565b604082019050919050565b60006020820190508181036000830152611def81611db3565b9050919050565b7f436f6d7075746572207761736e27742073656c65637465640000000000000000600082015250565b6000611e2c601883611bcc565b9150611e3782611df6565b602082019050919050565b60006020820190508181036000830152611e5b81611e1f565b9050919050565b7f4f6e6c79206f6e65207375626d697373696f6e20616c6c6f776564207065722060008201527f636f6d7075746572000000000000000000000000000000000000000000000000602082015250565b6000611ebe602883611bcc565b9150611ec982611e62565b604082019050919050565b60006020820190508181036000830152611eed81611eb1565b9050919050565b7f4e487b7100000000000000000000000000000000000000000000000000000000600052601260045260246000fd5b6000611f2e8261165b565b9150611f398361165b565b925082611f4957611f48611ef4565b5b828204905092915050565b6000611f5f8261165b565b9150611f6a8361165b565b9250827fffffffffffffffffffffffffffffffffffffffffffffffffffffffffffffffff03821115611f9f57611f9e611cdb565b5b828201905092915050565b7f546f6f206d616e7920636f6d7075746572732073656c65637465640000000000600082015250565b6000611fe0601b83611bcc565b9150611feb82611faa565b602082019050919050565b6000602082019050818103600083015261200f81611fd3565b9050919050565b7f52657175657374657220686173206e6f74206465706f73697474656420656e6f60008201527f7567680000000000000000000000000000000000000000000000000000000000602082015250565b6000612072602383611bcc565b915061207d82612016565b604082019050919050565b600060208201905081810360008301526120a181612065565b9050919050565b600081519050919050565b600081905092915050565b60005b838110156120dc5780820151818401526020810190506120c1565b838111156120eb576000848401525b50505050565b60006120fc826120a8565b61210681856120b3565b93506121168185602086016120be565b80840191505092915050565b600061212e82846120f1565b915081905092915050565b7f696420646f6573206e6f74206d61746368206465736372697074696f6e000000600082015250565b600061216f601d83611bcc565b915061217a82612139565b602082019050919050565b6000602082019050818103600083015261219e81612162565b9050919050565b60006121b0826120a8565b6121ba8185611bcc565b93506121ca8185602086016120be565b6121d381611792565b840191505092915050565b600060208201905081810360008301526121f881846121a5565b905092915050565b6000819050919050565b61221b61221682611587565b612200565b82525050565b600061222d828461220a565b60208201915081905092915050565b7f4e487b7100000000000000000000000000000000000000000000000000000000600052603260045260246000fd5b7f52657665616c20526573756c74733a204e6f7420726571756573746572000000600082015250565b60006122a1601d83611bcc565b91506122ac8261226b565b602082019050919050565b600060208201905081810360008301526122d081612294565b9050919050565b7f52657665616c20526573756c74733a20436f6d7075746174696f6e206e6f742060008201527f6163746976650000000000000000000000000000000000000000000000000000602082015250565b6000612333602683611bcc565b915061233e826122d7565b604082019050919050565b6000602082019050818103600083015261236281612326565b9050919050565b7f6e6f7420656e6f7567682072657475726e656420636f6d70757465722072657360008201527f706f6e7365732031000000000000000000000000000000000000000000000000602082015250565b60006123c5602883611bcc565b91506123d082612369565b604082019050919050565b600060208201905081810360008301526123f4816123b8565b9050919050565b7f6e6f7420656e6f7567682072657475726e656420636f6d70757465722072657360008201527f706f6e7365732032000000000000000000000000000000000000000000000000602082015250565b6000612457602883611bcc565b9150612462826123fb565b604082019050919050565b600060208201905081810360008301526124868161244a565b9050919050565b60006124988261165b565b91506124a38361165b565b9250826124b3576124b2611ef4565b5b828206905092915050565b7f6e6f7420612076616c69642064656372797074696f6e00000000000000000000600082015250565b60006124f4601683611bcc565b91506124ff826124be565b602082019050919050565b60006020820190508181036000830152612523816124e7565b9050919050565b60006125358261165b565b91507fffffffffffffffffffffffffffffffffffffffffffffffffffffffffffffffff82141561256857612567611cdb565b5b600182019050919050565b7f7265776172642073657420697320696e636f7272656374000000000000000000600082015250565b60006125a9601783611bcc565b91506125b482612573565b602082019050919050565b600060208201905081810360008301526125d88161259c565b9050919050565b60006125ea8261165b565b91506125f58361165b565b92508282101561260857612607611cdb565b5b828203905092915050565b6000819050919050565b600061262882612613565b915061263383612613565b9250827f80000000000000000000000000000000000000000000000000000000000000000182126000841215161561266e5761266d611cdb565b5b827f7fffffffffffffffffffffffffffffffffffffffffffffffffffffffffffffff0182136000841216156126a6576126a5611cdb565b5b828203905092915050565b60008160011c9050919050565b6000808291508390505b6001851115612708578086048111156126e4576126e3611cdb565b5b60018516156126f35780820291505b8081029050612701856126b1565b94506126c8565b94509492505050565b6000826000811461272957600181146127335761273c565b60019150506127f8565b829150506127f8565b508161274b57600090506127f8565b600190506000821360018114612768576000811461278057612794565b82860483111561277b5761277a611cdb565b5b612794565b82860583121561279357612792611cdb565b5b5b5060018316156127a2578190505b81820291506127b0836126b1565b92506127be858484846126be565b9250905081850481116000821316156127da576127d9611cdb565b5b81840581126000821216156127f2576127f1611cdb565b5b81810290505b949350505050565b600060ff82169050919050565b600061281882612613565b915061282383612800565b92506128717f7fffffffffffffffffffffffffffffffffffffffffffffffffffffffffffffff7f80000000000000000000000000000000000000000000000000000000000000008585612711565b90509291505056fea264697066735822122069269e4a8d0c5e0f5183789df2a6647678cac36a156b3ba0fc65760f1835ee0e64736f6c634300080a0033",
  "immutableReferences": {},
  "source": "// SPDX-License-Identifier: UNLICENSED\r\npragma solidity >=0.4.22 <0.9.0;\r\n\r\n\r\nimport \"@openzeppelin/contracts/utils/math/Math.sol\";\r\nimport \"@openzeppelin/contracts/utils/math/SafeMath.sol\";\r\n\r\n\r\ncontract MarvelDC{\r\n\r\n\t// this might throw and error. Check before deploying\r\n    function hash(bytes memory input) internal pure returns (bytes32) {\r\n        return bytes32(keccak256(input));\r\n    }\r\n    \r\n    bytes32 public _randomness;\r\n    \r\n    function refreshRandomness()\r\n        public\r\n        returns (bytes32 random)\r\n    {\r\n        _randomness = hash(abi.encodePacked(_randomness));\r\n        return (_randomness);\r\n    }\r\n    \r\n    mapping(bytes32 => Computation_Marvel) _computations;\r\n    mapping(address => uint256) _reputations;\r\n    address[] computers;\r\n    uint256 _escrowComputer;\r\n    uint256 initialReputation=10;\r\n    uint256 _relayerFee;\r\n    uint256 _finaliseBounty;\r\n    uint256 constant _phaseLength = 100;\r\n    // repMultiplier needed to provide block producers with an increase in reputation\r\n    uint256 constant _repMultiplier=10000;\r\n    \r\n    constructor() {\r\n    \t//do we need to set randomness?\r\n    \r\n        // set appropriate relayer fee, maybe updatable?\r\n        _relayerFee = 1;\r\n\r\n        // set computer escrow\r\n        _escrowComputer = 1;\r\n        _finaliseBounty = 1;\r\n    }\r\n\r\n     struct Computation_Marvel {\r\n    \taddress _requester;\r\n        uint _numToSelect;\r\n        uint _numToReward;\r\n        uint256 _rewardAmount;\r\n        uint _targetFunctionID;\r\n        uint256 _publicKeyN;\r\n        uint _startingBlock;\r\n        bool _active;\r\n        address[] _selectedComputers;\r\n        mapping(address => uint256) _responses;\r\n    }\r\n\r\n\t//in a public blockchain this randomness needs to be sourced correctly, here we just repeatedly hash a common seed\r\n    \r\n    \r\n    \r\n\r\n\t// DONE\r\n    function Computer_Register() public payable returns (bool) {\r\n        require(\r\n            msg.value >= _escrowComputer,\r\n            \"Computer register must deposit escrow \"\r\n        );\r\n        require((_reputations[msg.sender]==0), \"Registration ID already taken\");\r\n\r\n        _reputations[msg.sender] = initialReputation*_repMultiplier;\r\n        computers.push(msg.sender);\r\n\r\n        \r\n        return true;\r\n    }\r\n    \r\n    event ComputationSubmitted(string description);\r\n    \r\n\r\n    \r\n    // we assume an RSA encryption. To allow for on-chain verification, the exponent is hard-coded to 3\r\n    function Request_Computation(bytes32 _id, string memory description,\r\n        uint _numToSelect,\r\n        uint _numToReward,\r\n        uint256 _rewardAmount,\r\n        uint _targetFunctionID,\r\n        uint256 _publicKeyN) public payable returns (bool) {\r\n        // _numToReward*_rewardAmount is required for rewarding, while a further _numToReward*_rewardAmount is required for escrow.\r\n        require(\r\n            _numToSelect <= computers.length,\r\n            \"Too many computers selected\"\r\n        );\r\n    \trequire(\r\n            msg.value >= 2*(uint256(_numToReward)*_rewardAmount),\r\n            \"Requester has not depositted enough\"\r\n        );\r\n        \r\n        require(\r\n        //we want to check hash(description)=_id\r\n            _id == keccak256(abi.encodePacked(description)),\r\n            \"id does not match description\"\r\n        );\r\n        emit ComputationSubmitted(description);\r\n    \t\r\n    \tComputation_Marvel storage new_comp= _computations[_id];\r\n    \t\r\n    \tnew_comp._requester=msg.sender;\r\n    \tnew_comp._numToSelect=_numToSelect;\r\n    \tnew_comp._numToReward=_numToReward;\r\n    \tnew_comp._rewardAmount=_rewardAmount;\r\n    \tnew_comp._targetFunctionID=_targetFunctionID;\r\n        new_comp._publicKeyN=_publicKeyN;\r\n        new_comp._startingBlock=block.number;\r\n        new_comp._active=true;\r\n        select_Computers(_id);\r\n        \r\n        \r\n        \r\n        return true;\r\n    }\r\n    \r\n    // DONE\r\n    \r\n    \r\n    function getSelectedComputerByPosition(bytes32 _computationId, uint num) public view returns (address) {\r\n        \r\n        return _computations[_computationId]._selectedComputers[num];\r\n    }\r\n    function getReputation(address _computer) public view returns (uint256) {\r\n        \r\n        return _reputations[_computer];\r\n    }\r\n    function getComputerResponsesByAddress(bytes32 _computationId, address _comp) public view returns (uint256) {\r\n        \r\n        return _computations[_computationId]._responses[_comp];\r\n    }\r\n    \r\n    function Submit_Result(bytes32 _computationId, uint256 _response) public returns (bool) {\r\n        require(\r\n            _computations[_computationId]._startingBlock>0,\r\n            \"Submit Result: Computation doesn't exist\"\r\n        );\r\n        \r\n        require(\r\n            computer_was_selected(_computationId),\r\n            \"Computer wasn't selected\"\r\n        );\r\n        require(\r\n            _computations[_computationId]._responses[msg.sender]==0,\r\n            \"Only one submission allowed per computer\"\r\n        );\r\n        _computations[_computationId]._responses[msg.sender]=_response;\r\n\t\r\n\t// give the block producer an increase in reputation. See Reputation Mechanism section of paper for further details.\r\n\t\r\n\t_reputations[address(block.coinbase)]+= uint256(_repMultiplier*_computations[_computationId]._numToReward/_computations[_computationId]._numToSelect);\r\n        return true;\r\n    }\r\n    \r\n    // this function, and it's subfunctions require the requester to submit the list of results in order of quality (best to worst)\r\n    function Reveal_Results(bytes32 _computationId, address[] memory _respondingComputers, uint256[] memory _decryptedResults) public returns (bool) {\r\n        require(\r\n            _computations[_computationId]._requester==msg.sender,\r\n            \"Reveal Results: Not requester\"\r\n        );\r\n        require(\r\n            _computations[_computationId]._active==true,\r\n            \"Reveal Results: Computation not active\"\r\n        );\r\n        require(\r\n            _respondingComputers.length==_computations[_computationId]._numToSelect,\r\n            \"not enough returned computer responses 1\"\r\n        );\r\n        require(\r\n            _decryptedResults.length==_computations[_computationId]._numToSelect,\r\n            \"not enough returned computer responses 2\"\r\n        );\r\n        \r\n        //performs the modular exponentiation of the decryption to power of 3 to verify valid decryption\r\n        for (uint256 j = 0; j < _respondingComputers.length; j++) {\r\n        \tuint256 _resultToCheck=_decryptedResults[j];\r\n        \trequire( _computations[_computationId]._responses[_respondingComputers[j]] ==(_resultToCheck*((_resultToCheck*_resultToCheck)%_computations[_computationId]._publicKeyN)) %_computations[_computationId]._publicKeyN,\r\n            \t\"not a valid decryption\"\r\n        \t);   \t\t\r\n        }\r\n        // in this basic encoding, we only have one target function. This can be expanded.\r\n        if (_computations[_computationId]._targetFunctionID==1){\r\n        \trequire(rewardSetCheck_targetFunction1(_computationId, _respondingComputers, _decryptedResults),\"reward set is incorrect\");\r\n        }\r\n        // distribute rewards and update reputations\r\n\t\r\n\t\r\n        for (uint256 j = 0; j < _computations[_computationId]._numToReward; j++) {\r\n            payable(_respondingComputers[j]).transfer(_computations[_computationId]._rewardAmount);\r\n            _reputations[_respondingComputers[j]]+=(1*_repMultiplier);\t\t\r\n        }\r\n\t\r\n\t// update the reputation of the block producer in line with reputation mechanism of the paper\r\n\t_reputations[address(block.coinbase)]+= (_repMultiplier*_computations[_computationId]._numToReward);\r\n\t\r\n\t\r\n        //return escrow to requester\r\n        payable(msg.sender).transfer(_computations[_computationId]._rewardAmount * uint256( _computations[_computationId]._numToReward));\r\n        _computations[_computationId]._active=false;\r\n        return true;\r\n    }\r\n    \r\n    //target function is average\r\n    function rewardSetCheck_targetFunction1(bytes32 _computationId, address[] memory _respondingComputers, uint256[] memory _decryptedResults) internal returns (bool) {\r\n        uint256 targetValue=0;\r\n        for (uint256 j = 0; j < _decryptedResults.length; j++) {\r\n            targetValue += _decryptedResults[j];\r\n            \t\t\r\n        }\r\n        \r\n        targetValue=uint256(DivideBy(targetValue, uint256(_decryptedResults.length)));\r\n        \r\n        uint256 lastDistance=0;\r\n        for (uint256 j = 0; j < _decryptedResults.length; j++) {\r\n            uint256 currentDistance=uint256((int256(targetValue)-int256(_decryptedResults[j]))**2);\r\n            //results were not ordered correctly\r\n            if (currentDistance<lastDistance){\r\n            \treturn false;\r\n            }\r\n            lastDistance=currentDistance;\t\r\n        }\r\n        return true;\r\n    \r\n    }\r\n    \r\n    function computer_was_selected(bytes32 _computationId) internal returns (bool) {\r\n        address _addressToCheck= msg.sender;\r\n        for (uint256 j = 0; j < _computations[_computationId]._selectedComputers.length; j++) {\r\n            if (_computations[_computationId]._selectedComputers[j]==_addressToCheck){\r\n            \treturn true;\r\n            }\t\t\r\n        }\r\n        return false;\r\n    }\r\n    \r\n    \r\n    \r\n    function select_Computers (bytes32 _computationId) internal {\r\n    \tuint256 granularity=1000;\r\n    \taddress[] memory activeComps= computers;\r\n    \tuint256 totalRep;\r\n    \t//total balls owned by all players\r\n        uint256 upperbound;\r\n        //select ball by modulo randomness by number of balls\r\n        uint256 selectedBall;\r\n        \t\r\n        uint256 currentTotal;\r\n        uint256 currentComputer;\r\n    \t\r\n    \t\r\n    \tfor (uint256 i = 0; i < _computations[_computationId]._numToSelect; i++){\r\n    \t\t\r\n    \t\ttotalRep=0;\r\n    \t\t\r\n    \t\tfor (uint256 j = 0; j < computers.length-(i+1); j++) {\r\n            \t\ttotalRep+=_reputations[activeComps[j]];\r\n            \t\t\r\n        \t}\r\n        \t//total balls owned by all players\r\n        \tupperbound =totalRep * granularity;\r\n        \t//select ball by moduloing randomness by number of balls\r\n        \trefreshRandomness();\r\n        \tselectedBall=uint256(_randomness)%upperbound;\r\n        \t\r\n        \tcurrentTotal=0;\r\n        \tcurrentComputer=0;\r\n        \t//iterate through computers based on reputation\r\n        \twhile (currentTotal<=selectedBall){\r\n        \t\tcurrentTotal+= (_reputations[activeComps[currentComputer]]*granularity);\r\n        \t\tcurrentComputer++;\r\n        \t}\r\n        \t_computations[_computationId]._selectedComputers.push( activeComps[currentComputer-1]);\r\n        \tif (currentComputer<computers.length-(i+1)){\r\n        \t\tfor (uint256 j = currentComputer-1; j < activeComps.length-(i+1); j++) {\r\n            \t\t\tactiveComps[j]=activeComps[j+1];\r\n            \t\t\r\n        \t\t}\r\n        \t}\r\n    \t} \r\n    }\r\n    \r\n\r\n    \r\n    function DivideBy(uint256 numerator, uint256 denominator)\r\n        internal\r\n        pure\r\n        returns (uint256)\r\n    {\r\n        return SafeMath.div(numerator, denominator);\r\n    }\r\n\r\n    \r\n    \r\n\r\n    // proceeding functions return various pieces of information that should be checked\r\n    // BEFORE interacting with the blockchain\r\n\r\n    // check if registration ID exists\r\n\r\n\r\n\r\n    function _getContractBalance() public view returns (uint256) {\r\n        return address(this).balance;\r\n    }\r\n\r\n    function _getPlayerBalance() public view returns (uint256) {\r\n        return msg.sender.balance;\r\n    }\r\n\r\n    \r\n\r\n\r\n}\r\n",
  "sourcePath": "/home/conor/Documents/MarvelDC/contracts/MarvelDC.sol",
  "compiler": {
    "name": "solc",
    "version": "0.8.10+commit.fc410830.Emscripten.clang"
  },
  "schemaVersion": "3.4.5",
  "updatedAt": "2022-04-17T12:04:10.318Z",
  "devdoc": {
    "kind": "dev",
    "methods": {},
    "version": 1
  },
  "userdoc": {
    "kind": "user",
    "methods": {},
    "version": 1
  }
}