{
  "contractName": "MarvelDC",
  "abi": [
    {
      "inputs": [],
      "stateMutability": "nonpayable",
      "type": "constructor"
    },
    {
      "anonymous": false,
      "inputs": [
        {
          "indexed": false,
          "internalType": "string",
          "name": "description",
          "type": "string"
        }
      ],
      "name": "ComputationSubmitted",
      "type": "event"
    },
    {
      "inputs": [],
      "name": "_randomness",
      "outputs": [
        {
          "internalType": "bytes32",
          "name": "",
          "type": "bytes32"
        }
      ],
      "stateMutability": "view",
      "type": "function"
    },
    {
      "inputs": [],
      "name": "refreshRandomness",
      "outputs": [
        {
          "internalType": "bytes32",
          "name": "random",
          "type": "bytes32"
        }
      ],
      "stateMutability": "nonpayable",
      "type": "function"
    },
    {
      "inputs": [],
      "name": "Computer_Register",
      "outputs": [
        {
          "internalType": "bool",
          "name": "",
          "type": "bool"
        }
      ],
      "stateMutability": "payable",
      "type": "function"
    },
    {
      "inputs": [
        {
          "internalType": "bytes32",
          "name": "_id",
          "type": "bytes32"
        },
        {
          "internalType": "string",
          "name": "description",
          "type": "string"
        },
        {
          "internalType": "uint256",
          "name": "_numToSelect",
          "type": "uint256"
        },
        {
          "internalType": "uint256",
          "name": "_numToReward",
          "type": "uint256"
        },
        {
          "internalType": "uint256",
          "name": "_rewardAmount",
          "type": "uint256"
        },
        {
          "internalType": "uint256",
          "name": "_targetFunctionID",
          "type": "uint256"
        },
        {
          "internalType": "uint256",
          "name": "_publicKeyN",
          "type": "uint256"
        }
      ],
      "name": "Request_Computation",
      "outputs": [
        {
          "internalType": "bool",
          "name": "",
          "type": "bool"
        }
      ],
      "stateMutability": "payable",
      "type": "function"
    },
    {
      "inputs": [
        {
          "internalType": "bytes32",
          "name": "_computationId",
          "type": "bytes32"
        },
        {
          "internalType": "uint256",
          "name": "num",
          "type": "uint256"
        }
      ],
      "name": "getSelectedComputerByPosition",
      "outputs": [
        {
          "internalType": "address",
          "name": "",
          "type": "address"
        }
      ],
      "stateMutability": "view",
      "type": "function"
    },
    {
      "inputs": [
        {
          "internalType": "address",
          "name": "_computer",
          "type": "address"
        }
      ],
      "name": "getReputation",
      "outputs": [
        {
          "internalType": "uint256",
          "name": "",
          "type": "uint256"
        }
      ],
      "stateMutability": "view",
      "type": "function"
    },
    {
      "inputs": [
        {
          "internalType": "bytes32",
          "name": "_computationId",
          "type": "bytes32"
        },
        {
          "internalType": "address",
          "name": "_comp",
          "type": "address"
        }
      ],
      "name": "getComputerResponsesByAddress",
      "outputs": [
        {
          "internalType": "uint256",
          "name": "",
          "type": "uint256"
        }
      ],
      "stateMutability": "view",
      "type": "function"
    },
    {
      "inputs": [
        {
          "internalType": "bytes32",
          "name": "_computationId",
          "type": "bytes32"
        },
        {
          "internalType": "uint256",
          "name": "_response",
          "type": "uint256"
        }
      ],
      "name": "Submit_Result",
      "outputs": [
        {
          "internalType": "bool",
          "name": "",
          "type": "bool"
        }
      ],
      "stateMutability": "nonpayable",
      "type": "function"
    },
    {
      "inputs": [
        {
          "internalType": "bytes32",
          "name": "_computationId",
          "type": "bytes32"
        },
        {
          "internalType": "address[]",
          "name": "_respondingComputers",
          "type": "address[]"
        },
        {
          "internalType": "uint256[]",
          "name": "_decryptedResults",
          "type": "uint256[]"
        }
      ],
      "name": "Reveal_Results",
      "outputs": [
        {
          "internalType": "bool",
          "name": "",
          "type": "bool"
        }
      ],
      "stateMutability": "nonpayable",
      "type": "function"
    },
    {
      "inputs": [],
      "name": "_getContractBalance",
      "outputs": [
        {
          "internalType": "uint256",
          "name": "",
          "type": "uint256"
        }
      ],
      "stateMutability": "view",
      "type": "function"
    },
    {
      "inputs": [],
      "name": "_getPlayerBalance",
      "outputs": [
        {
          "internalType": "uint256",
          "name": "",
          "type": "uint256"
        }
      ],
      "stateMutability": "view",
      "type": "function"
    }
  ],
  "bytecode": "0x6080604052600a60055534801561001557600080fd5b506001600681905550600160048190555060016007819055506127828061003d6000396000f3fe60806040526004361061009c5760003560e01c80639c89a0e2116100645780639c89a0e21461017d578063aa6dec52146101ba578063aaadc68f146101f7578063c9f5a9fa14610227578063d26d927114610252578063ee460d5e1461028f5761009c565b806322f60d19146100a1578063598d2a4b146100de5780635995c11314610109578063894f27ff146101345780639b8303e01461015f575b600080fd5b3480156100ad57600080fd5b506100c860048036038101906100c391906114ee565b6102cc565b6040516100d59190611547565b60405180910390f35b3480156100ea57600080fd5b506100f361032a565b6040516101009190611547565b60405180910390f35b34801561011557600080fd5b5061011e610349565b60405161012b9190611547565b60405180910390f35b34801561014057600080fd5b50610149610351565b6040516101569190611571565b60405180910390f35b610167610357565b60405161017491906115a7565b60405180910390f35b34801561018957600080fd5b506101a4600480360381019061019f91906115c2565b6104d0565b6040516101b19190611547565b60405180910390f35b3480156101c657600080fd5b506101e160048036038101906101dc919061161b565b610519565b6040516101ee91906115a7565b60405180910390f35b610211600480360381019061020c91906117a1565b6106b3565b60405161021e91906115a7565b60405180910390f35b34801561023357600080fd5b5061023c6108bc565b6040516102499190611571565b60405180910390f35b34801561025e57600080fd5b506102796004803603810190610274919061161b565b6108f6565b604051610286919061186e565b60405180910390f35b34801561029b57600080fd5b506102b660048036038101906102b19190611a14565b610953565b6040516102c391906115a7565b60405180910390f35b60006001600084815260200190815260200160002060090160008373ffffffffffffffffffffffffffffffffffffffff1673ffffffffffffffffffffffffffffffffffffffff16815260200190815260200160002054905092915050565b60003373ffffffffffffffffffffffffffffffffffffffff1631905090565b600047905090565b60005481565b600060045434101561039e576040517f08c379a000000000000000000000000000000000000000000000000000000000815260040161039590611b22565b60405180910390fd5b6000600260003373ffffffffffffffffffffffffffffffffffffffff1673ffffffffffffffffffffffffffffffffffffffff1681526020019081526020016000205414610420576040517f08c379a000000000000000000000000000000000000000000000000000000000815260040161041790611b8e565b60405180910390fd5b600554600260003373ffffffffffffffffffffffffffffffffffffffff1673ffffffffffffffffffffffffffffffffffffffff168152602001908152602001600020819055506003339080600181540180825580915050600190039060005260206000200160009091909190916101000a81548173ffffffffffffffffffffffffffffffffffffffff021916908373ffffffffffffffffffffffffffffffffffffffff1602179055506001905090565b6000600260008373ffffffffffffffffffffffffffffffffffffffff1673ffffffffffffffffffffffffffffffffffffffff168152602001908152602001600020549050919050565b600080600160008581526020019081526020016000206006015411610573576040517f08c379a000000000000000000000000000000000000000000000000000000000815260040161056a90611c20565b60405180910390fd5b61057c83610e9a565b6105bb576040517f08c379a00000000000000000000000000000000000000000000000000000000081526004016105b290611c8c565b60405180910390fd5b60006001600085815260200190815260200160002060090160003373ffffffffffffffffffffffffffffffffffffffff1673ffffffffffffffffffffffffffffffffffffffff1681526020019081526020016000205414610651576040517f08c379a000000000000000000000000000000000000000000000000000000000815260040161064890611d1e565b60405180910390fd5b816001600085815260200190815260200160002060090160003373ffffffffffffffffffffffffffffffffffffffff1673ffffffffffffffffffffffffffffffffffffffff168152602001908152602001600020819055506001905092915050565b60006003805490508611156106fd576040517f08c379a00000000000000000000000000000000000000000000000000000000081526004016106f490611d8a565b60405180910390fd5b83856107099190611dd9565b60026107159190611dd9565b341015610757576040517f08c379a000000000000000000000000000000000000000000000000000000000815260040161074e90611ea5565b60405180910390fd5b866040516020016107689190611f3f565b6040516020818303038152906040528051906020012088146107bf576040517f08c379a00000000000000000000000000000000000000000000000000000000081526004016107b690611fa2565b60405180910390fd5b7fcd40ea1364197f8909dfcfd663fd734e22a6f4442cc841293e6f9293c8186ca8876040516107ee9190611ffb565b60405180910390a16000600160008a81526020019081526020016000209050338160000160006101000a81548173ffffffffffffffffffffffffffffffffffffffff021916908373ffffffffffffffffffffffffffffffffffffffff16021790555086816001018190555085816002018190555084816003018190555083816004018190555082816005018190555043816006018190555060018160070160006101000a81548160ff0219169083151502179055506108ac89610f74565b6001915050979650505050505050565b60006108e86000546040516020016108d4919061203e565b604051602081830303815290604052611331565b600081905550600054905090565b60006001600084815260200190815260200160002060080182815481106109205761091f612059565b5b9060005260206000200160009054906101000a900473ffffffffffffffffffffffffffffffffffffffff16905092915050565b60003373ffffffffffffffffffffffffffffffffffffffff166001600086815260200190815260200160002060000160009054906101000a900473ffffffffffffffffffffffffffffffffffffffff1673ffffffffffffffffffffffffffffffffffffffff16146109f9576040517f08c379a00000000000000000000000000000000000000000000000000000000081526004016109f0906120d4565b60405180910390fd5b600115156001600086815260200190815260200160002060070160009054906101000a900460ff16151514610a63576040517f08c379a0000000000000000000000000000000000000000000000000000000008152600401610a5a90612166565b60405180910390fd5b6001600085815260200190815260200160002060010154835114610abc576040517f08c379a0000000000000000000000000000000000000000000000000000000008152600401610ab3906121f8565b60405180910390fd5b6001600085815260200190815260200160002060010154825114610b15576040517f08c379a0000000000000000000000000000000000000000000000000000000008152600401610b0c9061228a565b60405180910390fd5b60005b8351811015610c5b576000838281518110610b3657610b35612059565b5b60200260200101519050600160008781526020019081526020016000206005015460016000888152602001908152602001600020600501548283610b7a9190611dd9565b610b8491906122d9565b82610b8f9190611dd9565b610b9991906122d9565b600160008881526020019081526020016000206009016000878581518110610bc457610bc3612059565b5b602002602001015173ffffffffffffffffffffffffffffffffffffffff1673ffffffffffffffffffffffffffffffffffffffff1681526020019081526020016000205414610c47576040517f08c379a0000000000000000000000000000000000000000000000000000000008152600401610c3e90612356565b60405180910390fd5b508080610c5390612376565b915050610b18565b506001806000868152602001908152602001600020600401541415610cc557610c85848484611342565b610cc4576040517f08c379a0000000000000000000000000000000000000000000000000000000008152600401610cbb9061240b565b60405180910390fd5b5b60005b6001600086815260200190815260200160002060020154811015610de157838181518110610cf957610cf8612059565b5b602002602001015173ffffffffffffffffffffffffffffffffffffffff166108fc60016000888152602001908152602001600020600301549081150290604051600060405180830381858888f19350505050158015610d5c573d6000803e3d6000fd5b50600160026000868481518110610d7657610d75612059565b5b602002602001015173ffffffffffffffffffffffffffffffffffffffff1673ffffffffffffffffffffffffffffffffffffffff1681526020019081526020016000206000828254610dc7919061242b565b925050819055508080610dd990612376565b915050610cc8565b503373ffffffffffffffffffffffffffffffffffffffff166108fc60016000878152602001908152602001600020600201546001600088815260200190815260200160002060030154610e349190611dd9565b9081150290604051600060405180830381858888f19350505050158015610e5f573d6000803e3d6000fd5b5060006001600086815260200190815260200160002060070160006101000a81548160ff021916908315150217905550600190509392505050565b60008033905060005b6001600085815260200190815260200160002060080180549050811015610f68578173ffffffffffffffffffffffffffffffffffffffff16600160008681526020019081526020016000206008018281548110610f0357610f02612059565b5b9060005260206000200160009054906101000a900473ffffffffffffffffffffffffffffffffffffffff1673ffffffffffffffffffffffffffffffffffffffff161415610f5557600192505050610f6f565b8080610f6090612376565b915050610ea3565b5060009150505b919050565b60006103e8905060006003805480602002602001604051908101604052809291908181526020018280548015610fff57602002820191906000526020600020905b8160009054906101000a900473ffffffffffffffffffffffffffffffffffffffff1673ffffffffffffffffffffffffffffffffffffffff1681526020019060010190808311610fb5575b50505050509050600080600080600080600090505b600160008a815260200190815260200160002060010154811015611326576000955060005b600182611046919061242b565b6003805490506110569190612481565b8110156110d7576002600089838151811061107457611073612059565b5b602002602001015173ffffffffffffffffffffffffffffffffffffffff1673ffffffffffffffffffffffffffffffffffffffff16815260200190815260200160002054876110c2919061242b565b965080806110cf90612376565b915050611039565b5087866110e49190611dd9565b94506110ee6108bc565b508460005460001c61110091906122d9565b935060009250600091505b83831161119757876002600089858151811061112a57611129612059565b5b602002602001015173ffffffffffffffffffffffffffffffffffffffff1673ffffffffffffffffffffffffffffffffffffffff168152602001908152602001600020546111779190611dd9565b83611182919061242b565b9250818061118f90612376565b92505061110b565b600160008a8152602001908152602001600020600801876001846111bb9190612481565b815181106111cc576111cb612059565b5b60200260200101519080600181540180825580915050600190039060005260206000200160009091909190916101000a81548173ffffffffffffffffffffffffffffffffffffffff021916908373ffffffffffffffffffffffffffffffffffffffff160217905550600181611241919061242b565b6003805490506112519190612481565b8210156113135760006001836112679190612481565b90505b600182611277919061242b565b88516112839190612481565b8110156113115787600182611298919061242b565b815181106112a9576112a8612059565b5b60200260200101518882815181106112c4576112c3612059565b5b602002602001019073ffffffffffffffffffffffffffffffffffffffff16908173ffffffffffffffffffffffffffffffffffffffff1681525050808061130990612376565b91505061126a565b505b808061131e90612376565b915050611014565b505050505050505050565b600081805190602001209050919050565b6000806000905060005b83518110156113905783818151811061136857611367612059565b5b60200260200101518261137b919061242b565b9150808061138890612376565b91505061134c565b5061139c81845161141c565b90506000805b845181101561140d57600060028683815181106113c2576113c1612059565b5b6020026020010151856113d591906124bf565b6113df91906126af565b9050828110156113f6576000945050505050611415565b80925050808061140590612376565b9150506113a2565b506001925050505b9392505050565b60006114288383611430565b905092915050565b6000818361143e919061271b565b905092915050565b6000604051905090565b600080fd5b600080fd5b6000819050919050565b61146d8161145a565b811461147857600080fd5b50565b60008135905061148a81611464565b92915050565b600073ffffffffffffffffffffffffffffffffffffffff82169050919050565b60006114bb82611490565b9050919050565b6114cb816114b0565b81146114d657600080fd5b50565b6000813590506114e8816114c2565b92915050565b6000806040838503121561150557611504611450565b5b60006115138582860161147b565b9250506020611524858286016114d9565b9150509250929050565b6000819050919050565b6115418161152e565b82525050565b600060208201905061155c6000830184611538565b92915050565b61156b8161145a565b82525050565b60006020820190506115866000830184611562565b92915050565b60008115159050919050565b6115a18161158c565b82525050565b60006020820190506115bc6000830184611598565b92915050565b6000602082840312156115d8576115d7611450565b5b60006115e6848285016114d9565b91505092915050565b6115f88161152e565b811461160357600080fd5b50565b600081359050611615816115ef565b92915050565b6000806040838503121561163257611631611450565b5b60006116408582860161147b565b925050602061165185828601611606565b9150509250929050565b600080fd5b600080fd5b6000601f19601f8301169050919050565b7f4e487b7100000000000000000000000000000000000000000000000000000000600052604160045260246000fd5b6116ae82611665565b810181811067ffffffffffffffff821117156116cd576116cc611676565b5b80604052505050565b60006116e0611446565b90506116ec82826116a5565b919050565b600067ffffffffffffffff82111561170c5761170b611676565b5b61171582611665565b9050602081019050919050565b82818337600083830152505050565b600061174461173f846116f1565b6116d6565b9050828152602081018484840111156117605761175f611660565b5b61176b848285611722565b509392505050565b600082601f8301126117885761178761165b565b5b8135611798848260208601611731565b91505092915050565b600080600080600080600060e0888a0312156117c0576117bf611450565b5b60006117ce8a828b0161147b565b975050602088013567ffffffffffffffff8111156117ef576117ee611455565b5b6117fb8a828b01611773565b965050604061180c8a828b01611606565b955050606061181d8a828b01611606565b945050608061182e8a828b01611606565b93505060a061183f8a828b01611606565b92505060c06118508a828b01611606565b91505092959891949750929550565b611868816114b0565b82525050565b6000602082019050611883600083018461185f565b92915050565b600067ffffffffffffffff8211156118a4576118a3611676565b5b602082029050602081019050919050565b600080fd5b60006118cd6118c884611889565b6116d6565b905080838252602082019050602084028301858111156118f0576118ef6118b5565b5b835b81811015611919578061190588826114d9565b8452602084019350506020810190506118f2565b5050509392505050565b600082601f8301126119385761193761165b565b5b81356119488482602086016118ba565b91505092915050565b600067ffffffffffffffff82111561196c5761196b611676565b5b602082029050602081019050919050565b600061199061198b84611951565b6116d6565b905080838252602082019050602084028301858111156119b3576119b26118b5565b5b835b818110156119dc57806119c88882611606565b8452602084019350506020810190506119b5565b5050509392505050565b600082601f8301126119fb576119fa61165b565b5b8135611a0b84826020860161197d565b91505092915050565b600080600060608486031215611a2d57611a2c611450565b5b6000611a3b8682870161147b565b935050602084013567ffffffffffffffff811115611a5c57611a5b611455565b5b611a6886828701611923565b925050604084013567ffffffffffffffff811115611a8957611a88611455565b5b611a95868287016119e6565b9150509250925092565b600082825260208201905092915050565b7f436f6d7075746572207265676973746572206d757374206465706f736974206560008201527f7363726f77200000000000000000000000000000000000000000000000000000602082015250565b6000611b0c602683611a9f565b9150611b1782611ab0565b604082019050919050565b60006020820190508181036000830152611b3b81611aff565b9050919050565b7f526567697374726174696f6e20494420616c72656164792074616b656e000000600082015250565b6000611b78601d83611a9f565b9150611b8382611b42565b602082019050919050565b60006020820190508181036000830152611ba781611b6b565b9050919050565b7f5375626d697420526573756c743a20436f6d7075746174696f6e20646f65736e60008201527f2774206578697374000000000000000000000000000000000000000000000000602082015250565b6000611c0a602883611a9f565b9150611c1582611bae565b604082019050919050565b60006020820190508181036000830152611c3981611bfd565b9050919050565b7f436f6d7075746572207761736e27742073656c65637465640000000000000000600082015250565b6000611c76601883611a9f565b9150611c8182611c40565b602082019050919050565b60006020820190508181036000830152611ca581611c69565b9050919050565b7f4f6e6c79206f6e65207375626d697373696f6e20616c6c6f776564207065722060008201527f636f6d7075746572000000000000000000000000000000000000000000000000602082015250565b6000611d08602883611a9f565b9150611d1382611cac565b604082019050919050565b60006020820190508181036000830152611d3781611cfb565b9050919050565b7f546f6f206d616e7920636f6d7075746572732073656c65637465640000000000600082015250565b6000611d74601b83611a9f565b9150611d7f82611d3e565b602082019050919050565b60006020820190508181036000830152611da381611d67565b9050919050565b7f4e487b7100000000000000000000000000000000000000000000000000000000600052601160045260246000fd5b6000611de48261152e565b9150611def8361152e565b9250817fffffffffffffffffffffffffffffffffffffffffffffffffffffffffffffffff0483118215151615611e2857611e27611daa565b5b828202905092915050565b7f52657175657374657220686173206e6f74206465706f73697474656420656e6f60008201527f7567680000000000000000000000000000000000000000000000000000000000602082015250565b6000611e8f602383611a9f565b9150611e9a82611e33565b604082019050919050565b60006020820190508181036000830152611ebe81611e82565b9050919050565b600081519050919050565b600081905092915050565b60005b83811015611ef9578082015181840152602081019050611ede565b83811115611f08576000848401525b50505050565b6000611f1982611ec5565b611f238185611ed0565b9350611f33818560208601611edb565b80840191505092915050565b6000611f4b8284611f0e565b915081905092915050565b7f696420646f6573206e6f74206d61746368206465736372697074696f6e000000600082015250565b6000611f8c601d83611a9f565b9150611f9782611f56565b602082019050919050565b60006020820190508181036000830152611fbb81611f7f565b9050919050565b6000611fcd82611ec5565b611fd78185611a9f565b9350611fe7818560208601611edb565b611ff081611665565b840191505092915050565b600060208201905081810360008301526120158184611fc2565b905092915050565b6000819050919050565b6120386120338261145a565b61201d565b82525050565b600061204a8284612027565b60208201915081905092915050565b7f4e487b7100000000000000000000000000000000000000000000000000000000600052603260045260246000fd5b7f52657665616c20526573756c74733a204e6f7420726571756573746572000000600082015250565b60006120be601d83611a9f565b91506120c982612088565b602082019050919050565b600060208201905081810360008301526120ed816120b1565b9050919050565b7f52657665616c20526573756c74733a20436f6d7075746174696f6e206e6f742060008201527f6163746976650000000000000000000000000000000000000000000000000000602082015250565b6000612150602683611a9f565b915061215b826120f4565b604082019050919050565b6000602082019050818103600083015261217f81612143565b9050919050565b7f6e6f7420656e6f7567682072657475726e656420636f6d70757465722072657360008201527f706f6e7365732031000000000000000000000000000000000000000000000000602082015250565b60006121e2602883611a9f565b91506121ed82612186565b604082019050919050565b60006020820190508181036000830152612211816121d5565b9050919050565b7f6e6f7420656e6f7567682072657475726e656420636f6d70757465722072657360008201527f706f6e7365732032000000000000000000000000000000000000000000000000602082015250565b6000612274602883611a9f565b915061227f82612218565b604082019050919050565b600060208201905081810360008301526122a381612267565b9050919050565b7f4e487b7100000000000000000000000000000000000000000000000000000000600052601260045260246000fd5b60006122e48261152e565b91506122ef8361152e565b9250826122ff576122fe6122aa565b5b828206905092915050565b7f6e6f7420612076616c69642064656372797074696f6e00000000000000000000600082015250565b6000612340601683611a9f565b915061234b8261230a565b602082019050919050565b6000602082019050818103600083015261236f81612333565b9050919050565b60006123818261152e565b91507fffffffffffffffffffffffffffffffffffffffffffffffffffffffffffffffff8214156123b4576123b3611daa565b5b600182019050919050565b7f7265776172642073657420697320696e636f7272656374000000000000000000600082015250565b60006123f5601783611a9f565b9150612400826123bf565b602082019050919050565b60006020820190508181036000830152612424816123e8565b9050919050565b60006124368261152e565b91506124418361152e565b9250827fffffffffffffffffffffffffffffffffffffffffffffffffffffffffffffffff0382111561247657612475611daa565b5b828201905092915050565b600061248c8261152e565b91506124978361152e565b9250828210156124aa576124a9611daa565b5b828203905092915050565b6000819050919050565b60006124ca826124b5565b91506124d5836124b5565b9250827f8000000000000000000000000000000000000000000000000000000000000000018212600084121516156125105761250f611daa565b5b827f7fffffffffffffffffffffffffffffffffffffffffffffffffffffffffffffff01821360008412161561254857612547611daa565b5b828203905092915050565b60008160011c9050919050565b6000808291508390505b60018511156125aa5780860481111561258657612585611daa565b5b60018516156125955780820291505b80810290506125a385612553565b945061256a565b94509492505050565b600082600081146125cb57600181146125d5576125de565b600191505061269a565b8291505061269a565b50816125ed576000905061269a565b60019050600082136001811461260a576000811461262257612636565b82860483111561261d5761261c611daa565b5b612636565b82860583121561263557612634611daa565b5b5b506001831615612644578190505b818202915061265283612553565b925061266085848484612560565b92509050818504811160008213161561267c5761267b611daa565b5b818405811260008212161561269457612693611daa565b5b81810290505b949350505050565b600060ff82169050919050565b60006126ba826124b5565b91506126c5836126a2565b92506127137f7fffffffffffffffffffffffffffffffffffffffffffffffffffffffffffffff7f800000000000000000000000000000000000000000000000000000000000000085856125b3565b905092915050565b60006127268261152e565b91506127318361152e565b925082612741576127406122aa565b5b82820490509291505056fea264697066735822122093d2255c1b2f22f93259b0b8f2105515159317eacc23d10d16e6b210acd0e57b64736f6c634300080a0033",
  "immutableReferences": {},
  "source": "// SPDX-License-Identifier: UNLICENSED\r\npragma solidity >=0.4.22 <0.9.0;\r\n\r\n\r\nimport \"@openzeppelin/contracts/utils/math/Math.sol\";\r\nimport \"@openzeppelin/contracts/utils/math/SafeMath.sol\";\r\n\r\n\r\ncontract MarvelDC{\r\n\r\n\t// this might throw and error. Check before deploying\r\n    function hash(bytes memory input) internal pure returns (bytes32) {\r\n        return bytes32(keccak256(input));\r\n    }\r\n    \r\n    bytes32 public _randomness;\r\n    \r\n    function refreshRandomness()\r\n        public\r\n        returns (bytes32 random)\r\n    {\r\n        _randomness = hash(abi.encodePacked(_randomness));\r\n        return (_randomness);\r\n    }\r\n    \r\n    mapping(bytes32 => Computation_Marvel) _computations;\r\n    mapping(address => uint256) _reputations;\r\n    address[] computers;\r\n    uint256 _escrowComputer;\r\n    uint256 initialReputation=10;\r\n    uint256 _relayerFee;\r\n    uint256 _finaliseBounty;\r\n    uint256 constant _phaseLength = 100;\r\n    \r\n    \r\n    constructor() {\r\n    \t//do we need to set randomness?\r\n    \r\n        // set appropriate relayer fee, maybe updatable?\r\n        _relayerFee = 1;\r\n\r\n        // set computer escrow\r\n        _escrowComputer = 1;\r\n        _finaliseBounty = 1;\r\n    }\r\n\r\n     struct Computation_Marvel {\r\n    \taddress _requester;\r\n        uint _numToSelect;\r\n        uint _numToReward;\r\n        uint256 _rewardAmount;\r\n        uint _targetFunctionID;\r\n        uint256 _publicKeyN;\r\n        uint _startingBlock;\r\n        bool _active;\r\n        address[] _selectedComputers;\r\n        mapping(address => uint256) _responses;\r\n    }\r\n\r\n\t//in a public blockchain this randomness needs to be sourced correctly, here we just repeatedly hash a common seed\r\n    \r\n    \r\n    \r\n\r\n\t// DONE\r\n    function Computer_Register() public payable returns (bool) {\r\n        require(\r\n            msg.value >= _escrowComputer,\r\n            \"Computer register must deposit escrow \"\r\n        );\r\n        require((_reputations[msg.sender]==0), \"Registration ID already taken\");\r\n\r\n        _reputations[msg.sender] = initialReputation;\r\n        computers.push(msg.sender);\r\n\r\n        \r\n        return true;\r\n    }\r\n    \r\n    event ComputationSubmitted(string description);\r\n    \r\n\r\n    \r\n    // we assume an RSA encryption. To allow for on-chain verification, the exponent is hard-coded to 3\r\n    function Request_Computation(bytes32 _id, string memory description,\r\n        uint _numToSelect,\r\n        uint _numToReward,\r\n        uint256 _rewardAmount,\r\n        uint _targetFunctionID,\r\n        uint256 _publicKeyN) public payable returns (bool) {\r\n        // _numToReward*_rewardAmount is required for rewarding, while a further _numToReward*_rewardAmount is required for escrow.\r\n        require(\r\n            _numToSelect <= computers.length,\r\n            \"Too many computers selected\"\r\n        );\r\n    \trequire(\r\n            msg.value >= 2*(uint256(_numToReward)*_rewardAmount),\r\n            \"Requester has not depositted enough\"\r\n        );\r\n        \r\n        require(\r\n        //we want to check hash(description)=_id\r\n            _id == keccak256(abi.encodePacked(description)),\r\n            \"id does not match description\"\r\n        );\r\n        emit ComputationSubmitted(description);\r\n    \t\r\n    \tComputation_Marvel storage new_comp= _computations[_id];\r\n    \t\r\n    \tnew_comp._requester=msg.sender;\r\n    \tnew_comp._numToSelect=_numToSelect;\r\n    \tnew_comp._numToReward=_numToReward;\r\n    \tnew_comp._rewardAmount=_rewardAmount;\r\n    \tnew_comp._targetFunctionID=_targetFunctionID;\r\n        new_comp._publicKeyN=_publicKeyN;\r\n        new_comp._startingBlock=block.number;\r\n        new_comp._active=true;\r\n        select_Computers(_id);\r\n        \r\n        \r\n        \r\n        return true;\r\n    }\r\n    \r\n    // DONE\r\n    \r\n    \r\n    function getSelectedComputerByPosition(bytes32 _computationId, uint num) public view returns (address) {\r\n        \r\n        return _computations[_computationId]._selectedComputers[num];\r\n    }\r\n    function getReputation(address _computer) public view returns (uint256) {\r\n        \r\n        return _reputations[_computer];\r\n    }\r\n    function getComputerResponsesByAddress(bytes32 _computationId, address _comp) public view returns (uint256) {\r\n        \r\n        return _computations[_computationId]._responses[_comp];\r\n    }\r\n    \r\n    function Submit_Result(bytes32 _computationId, uint256 _response) public returns (bool) {\r\n        require(\r\n            _computations[_computationId]._startingBlock>0,\r\n            \"Submit Result: Computation doesn't exist\"\r\n        );\r\n        \r\n        require(\r\n            computer_was_selected(_computationId),\r\n            \"Computer wasn't selected\"\r\n        );\r\n        require(\r\n            _computations[_computationId]._responses[msg.sender]==0,\r\n            \"Only one submission allowed per computer\"\r\n        );\r\n        _computations[_computationId]._responses[msg.sender]=_response;\r\n\r\n        return true;\r\n    }\r\n    \r\n    // this function, and it's subfunctions require the requester to submit the list of results in order of quality (best to worst)\r\n    function Reveal_Results(bytes32 _computationId, address[] memory _respondingComputers, uint256[] memory _decryptedResults) public returns (bool) {\r\n        require(\r\n            _computations[_computationId]._requester==msg.sender,\r\n            \"Reveal Results: Not requester\"\r\n        );\r\n        require(\r\n            _computations[_computationId]._active==true,\r\n            \"Reveal Results: Computation not active\"\r\n        );\r\n        require(\r\n            _respondingComputers.length==_computations[_computationId]._numToSelect,\r\n            \"not enough returned computer responses 1\"\r\n        );\r\n        require(\r\n            _decryptedResults.length==_computations[_computationId]._numToSelect,\r\n            \"not enough returned computer responses 2\"\r\n        );\r\n        \r\n        //performs the modular exponentiation of the decryption to power of 3 to verify valid decryption\r\n        for (uint256 j = 0; j < _respondingComputers.length; j++) {\r\n        \tuint256 _resultToCheck=_decryptedResults[j];\r\n        \trequire( _computations[_computationId]._responses[_respondingComputers[j]] ==(_resultToCheck*((_resultToCheck*_resultToCheck)%_computations[_computationId]._publicKeyN)) %_computations[_computationId]._publicKeyN,\r\n            \t\"not a valid decryption\"\r\n        \t);   \t\t\r\n        }\r\n        // in this basic encoding, we only have one target function. This can be expanded.\r\n        if (_computations[_computationId]._targetFunctionID==1){\r\n        \trequire(rewardSetCheck_targetFunction1(_computationId, _respondingComputers, _decryptedResults),\"reward set is incorrect\");\r\n        }\r\n        // distribute rewards and update reputations\r\n        for (uint256 j = 0; j < _computations[_computationId]._numToReward; j++) {\r\n            payable(_respondingComputers[j]).transfer(_computations[_computationId]._rewardAmount);\r\n            _reputations[_respondingComputers[j]]+=1;\t\t\r\n        }\r\n        //return escrow to requester\r\n        payable(msg.sender).transfer(_computations[_computationId]._rewardAmount * uint256( _computations[_computationId]._numToReward));\r\n        _computations[_computationId]._active=false;\r\n        return true;\r\n    }\r\n    \r\n    //target function is average\r\n    function rewardSetCheck_targetFunction1(bytes32 _computationId, address[] memory _respondingComputers, uint256[] memory _decryptedResults) internal returns (bool) {\r\n        uint256 targetValue=0;\r\n        for (uint256 j = 0; j < _decryptedResults.length; j++) {\r\n            targetValue += _decryptedResults[j];\r\n            \t\t\r\n        }\r\n        \r\n        targetValue=uint256(DivideBy(targetValue, uint256(_decryptedResults.length)));\r\n        \r\n        uint256 lastDistance=0;\r\n        for (uint256 j = 0; j < _decryptedResults.length; j++) {\r\n            uint256 currentDistance=uint256((int256(targetValue)-int256(_decryptedResults[j]))**2);\r\n            //results were not ordered correctly\r\n            if (currentDistance<lastDistance){\r\n            \treturn false;\r\n            }\r\n            lastDistance=currentDistance;\t\r\n        }\r\n        return true;\r\n    \r\n    }\r\n    \r\n    function computer_was_selected(bytes32 _computationId) internal returns (bool) {\r\n        address _addressToCheck= msg.sender;\r\n        for (uint256 j = 0; j < _computations[_computationId]._selectedComputers.length; j++) {\r\n            if (_computations[_computationId]._selectedComputers[j]==_addressToCheck){\r\n            \treturn true;\r\n            }\t\t\r\n        }\r\n        return false;\r\n    }\r\n    \r\n    \r\n    \r\n    function select_Computers (bytes32 _computationId) internal {\r\n    \tuint256 granularity=1000;\r\n    \taddress[] memory activeComps= computers;\r\n    \tuint256 totalRep;\r\n    \t//total balls owned by all players\r\n        uint256 upperbound;\r\n        //select ball by modulo randomness by number of balls\r\n        uint256 selectedBall;\r\n        \t\r\n        uint256 currentTotal;\r\n        uint256 currentComputer;\r\n    \t\r\n    \t\r\n    \tfor (uint256 i = 0; i < _computations[_computationId]._numToSelect; i++){\r\n    \t\t\r\n    \t\ttotalRep=0;\r\n    \t\t\r\n    \t\tfor (uint256 j = 0; j < computers.length-(i+1); j++) {\r\n            \t\ttotalRep+=_reputations[activeComps[j]];\r\n            \t\t\r\n        \t}\r\n        \t//total balls owned by all players\r\n        \tupperbound =totalRep * granularity;\r\n        \t//select ball by moduloing randomness by number of balls\r\n        \trefreshRandomness();\r\n        \tselectedBall=uint256(_randomness)%upperbound;\r\n        \t\r\n        \tcurrentTotal=0;\r\n        \tcurrentComputer=0;\r\n        \t//iterate through computers based on reputation\r\n        \twhile (currentTotal<=selectedBall){\r\n        \t\tcurrentTotal+= (_reputations[activeComps[currentComputer]]*granularity);\r\n        \t\tcurrentComputer++;\r\n        \t}\r\n        \t_computations[_computationId]._selectedComputers.push( activeComps[currentComputer-1]);\r\n        \tif (currentComputer<computers.length-(i+1)){\r\n        \t\tfor (uint256 j = currentComputer-1; j < activeComps.length-(i+1); j++) {\r\n            \t\t\tactiveComps[j]=activeComps[j+1];\r\n            \t\t\r\n        \t\t}\r\n        \t}\r\n    \t} \r\n    }\r\n    \r\n\r\n    \r\n    function DivideBy(uint256 numerator, uint256 denominator)\r\n        internal\r\n        pure\r\n        returns (uint256)\r\n    {\r\n        return SafeMath.div(numerator, denominator);\r\n    }\r\n\r\n    \r\n    \r\n\r\n    // proceeding functions return various pieces of information that should be checked\r\n    // BEFORE interacting with the blockchain\r\n\r\n    // check if registration ID exists\r\n\r\n\r\n\r\n    function _getContractBalance() public view returns (uint256) {\r\n        return address(this).balance;\r\n    }\r\n\r\n    function _getPlayerBalance() public view returns (uint256) {\r\n        return msg.sender.balance;\r\n    }\r\n\r\n    \r\n\r\n\r\n}\r\n",
  "sourcePath": "/home/conor/Documents/MarvelDC/contracts/MarvelDC.sol",
  "compiler": {
    "name": "solc",
    "version": "0.8.10+commit.fc410830.Emscripten.clang"
  },
  "schemaVersion": "3.4.5",
  "updatedAt": "2022-04-06T15:45:31.231Z",
  "devdoc": {
    "kind": "dev",
    "methods": {},
    "version": 1
  },
  "userdoc": {
    "kind": "user",
    "methods": {},
    "version": 1
  }
}